:020000040800F2
:1000000000000220F514000845150008110C000836
:1000100045150008451500084515000800000000BA
:10002000000000000000000000000000451500086E
:10003000451500080000000045150008451500089A
:10004000F10B0008010C00084515000845150008D3
:100050004515000845150008451500084515000818
:100060004515000845150008451500084515000808
:1000700045150008451500084515000845150008F8
:10008000451500084515000845150008000000004A
:1000900000000000000000000000000045150008FE
:1000A00045150008451500084515000845150008C8
:1000B00045150008451500084515000845150008B8
:1000C00045150008451500084515000845150008A8
:1000D00045150008451500084515000800000000FA
:1000E00045150008451500084515000800000000EA
:1000F000000000000000000000000000451500089E
:1001000000000000451500084515000845150008C9
:1001100000000000000000000000000000000000DF
:100120004515000845150008451500084515000847
:10013000451500080000000000000000000000005D
:10014000000000000000000000000000451500084D
:100150004515000845150008451500084515000817
:1001600045150008451500080000000000000000CB
:10017000000000000000000000000000000000007F
:10018000000000004515000800000000000000000D
:080190004515000845150008A3
:1001A000034613F8012B002AFBD1181A01387047B7
:1001B00001F0FF01102A2BDB10F0070F08D010F818
:1001C000013B013A8B422DD010F0070F42B3F6D11C
:1001D000F0B441EA012141EA014122F007047FF035
:1001E00000070023F0E80256083C85EA010586EA8C
:1001F000010685FA47F5A3FA87F586FA47F6A5FAC8
:1002000087F68EB9EED1F0BC01F0FF0102F00702D3
:1002100032B110F8013B013A83EA010313B1F8D17E
:100220000020704701387047002D06BF354603385F
:10023000073815F0010F07D1013015F4807F02BF98
:10024000013015F4C03F0130F0BC0138704700BFE9
:1002500053B94AB9002908BF00281CBF4FF0FF312D
:100260004FF0FF3000F00CB8ADF1080C6DE904CE92
:1002700001F06EFEDDF804E0DDE9022304B0704712
:10028000704700BF0348044B834202D0034B03B1C5
:10029000184770475C0000205C0000200000000050
:1002A0000548064B1B1AD90F01EBA301491002D0D8
:1002B000034B03B1184770475C0000205C0000202E
:1002C0000000000010B5064C237843B9FFF7DAFFB1
:1002D000044B13B10448AFF300800123237010BD19
:1002E0005C000020000000000C22000808B5054B4F
:1002F0001BB105490548AFF30080BDE80840FFF792
:10030000CFBF00BF00000000600000200C220008EA
:10031000034AD2F8883043F47003C2F8883070473B
:1003200000ED00E07047012801D0002070474FF435
:1003300080507047022806D0032807D0012808D132
:100340004FF4805070474FF4005070474FF44050C6
:10035000704700207047012804D0022805D14FF4CF
:10036000C06070474FF480607047002070470128DC
:1003700003D0022803D108207047042070470C20C6
:100380007047022806D0032807D0012808D14FF46F
:10039000807070474FF4007070474FF440707047A2
:1003A00000207047034610F0010000D0012013F038
:1003B000020F01D040F0020013F0040F01D040F012
:1003C000040013F0080F01D040F0080013F0100FE4
:1003D00001D040F01000704718B1012803D0002070
:1003E0007047024870470248704700BFC0000020B5
:1003F00078000020F0B589B018B1012828D009B0E4
:10040000F0BD00230193254B1A6B42F001021A63E1
:100410001B6B03F001030193019B4FF400730393E3
:1004200002240494012705970694072607961C4D7D
:1004300003A9284600F05AFD4FF480630393049407
:1004400005970694079603A9284600F04FFDD6E7C6
:1004500000230293114B1A6B42F001021A631B6BCB
:1004600003F001030293029B0423039302240494E8
:1004700001270597069407260796094D03A92846E4
:1004800000F034FD0823039304940597069407961F
:1004900003A9284600F02AFDB1E700BF003802405A
:1004A0000000024000285ED0F0B583B00D4614462F
:1004B0000746002A59D0012959D801700223037434
:1004C00000234362031D07CA83E80700002D32D1D1
:1004D000284E294B336000230093284B5A6C42F07E
:1004E00010025A645B6C03F010030093009B2068B9
:1004F000FFF718FF70602079FFF715FFB060607993
:10050000FFF718FFF060A079FFF725FF3061207A30
:10051000FFF72DFF7061E079FFF733FFB061002333
:10052000F3612846FFF766FF304600F0BDFE90B944
:1005300001233B741CE0124E124B336000230193E5
:100540000E4B1A6C42F400321A641B6C03F4003335
:100550000193019BCBE706233B74706CFFF722FFEE
:100560007862012004E001207047012000E00120B2
:1005700003B0F0BDC0000020001001400038024070
:100580007800002000440040A8B32DE9F0410C465B
:1005900015461F46064681B38AB3027C013AD2B2A1
:1005A000012A2FD8007801282ED8FFF715FF8046A2
:1005B00060B30223337474613583002373833B4635
:1005C0002A46214600F0A0FE50B103280CD0D8F8EE
:1005D0004400FFF7E7FE70620623337401200FE04A
:1005E0007583012333740BE0736A43F04003736235
:1005F0000623337404E001207047012000E001204D
:10060000BDE8F0810220FBE70120F9E70120F7E7D0
:10061000A8B32DE9F0410C4615461F46064681B3A6
:100620008AB3027C013AD2B2012A2FD8007801287D
:100630002ED8FFF7D1FE804660B302233374F461F5
:100640003584002373843B462A46214600F0C2FECF
:1006500050B103280CD0D8F84400FFF7A3FE706215
:100660000623337401200FE07584012333740BE0FB
:10067000736A43F0400373620623337404E001207D
:100680007047012000E00120BDE8F0810220FBE777
:100690000120F9E70120F7E7BFF34F8F0549CA684A
:1006A00002F4E062044B1343CB60BFF34F8F00BFF3
:1006B000FDE700BF00ED00E00400FA05402B2CD858
:1006C00000B54FF0550C80F800C06FF0550C80F865
:1006D00001C08170C37063B15AB1002107E012F804
:1006E00001E000EB010C8CF804E00131C9B2994241
:1006F000F5D303F1040E5FFA8EFE0022114605E0E9
:1007000010F802C08CEA01010132D2B29645F7D846
:1007100080F84410581D5DF804FB4FF0FF3070471F
:1007200003293FD910B5864600231C46081F834283
:1007300036D81EF803C00EEB030040784CEA002CBC
:100740000FFA8CFC1848844502D001339BB2ECE7C9
:10075000E01C1EF800C00CF1050C604663448B429F
:100760001CDC002305E00EEB0301095DD1540133CD
:100770009BB26345F7D392F803C00CF1040C5FFA07
:100780008CFC0023194603E0D45C61400133DBB2EA
:100790009C45F9D892F84430994202D0002000E0FC
:1007A000002010BD0020704755AAFFFF424A136881
:1007B00043F480331360414B3F4A126812F4003F08
:1007C00041D1013BF8D13C4B1A6822F480321A60C7
:1007D0001A6822F480221A60394A5A60394B012281
:1007E0001A66364B344A126812F0007F02D1013B80
:1007F000F8D15FE0344B02221A702F4A936823F03D
:10080000030343F0020393602C4A2B4B9B6803F0D5
:100810000C03082B01D0013AF7D1274B9A6822F03C
:10082000F0029A609A689A609A6822F4E0529A609C
:100830009A6842F480529A609A6822F460429A6000
:100840009A689A6070471C4B204A5A601D4B0122DF
:100850001A661A4B184A126812F0007F02D1013B47
:10086000F8D127E0184B03221A70134A936823F03B
:10087000030343F002039360104A0F4B9B6803F09D
:100880000C03082B01D0013AF7D10B4B9A6822F0E8
:10089000F0029A609A689A609A6822F4E0529A602C
:1008A0009A6842F480529A609A6822F460429A6090
:1008B0009A689A60704700BF00380240A086010025
:1008C0001040002400004742003C0240041940242C
:1008D00010B50446FFF764FC642382B22146024847
:1008E00000F012FD10BD00BF5802002030B589B0E5
:1008F00000240194184B1A6B42F001021A631A6B20
:1009000002F001020192019A02945A6C42F0100224
:100910005A645B6C03F010030293029B0DF10C0C04
:100920000E4D0FCDACE80F002B68CCF8003003A9BA
:100930000B4800F0DBFA0B480B4B03604FF46123CC
:1009400043608460C46004610C2343618461C461BA
:1009500000F0AAFC09B030BD003802402422000893
:1009600000000240580200200010014010B584B081
:1009700001AB0A4A07CA83E807001A460121084862
:10098000FFF790FD044628B90648FFF7A1FF20466F
:1009900004B010BD0448FFF79BFFF8E738220008B9
:1009A000300200204C2200087C22000808B50A46CC
:1009B000642301460748FFF7E7FD28B9064A136894
:1009C00001331360012008BD034A9368013393602B
:1009D0000020F8E7300200201802002000B595B092
:1009E0008DF8070001230DF10702062102A8FFF789
:1009F00065FE002802DC15B05DF804FBC1B202A858
:100A0000FFF7D4FFF7E70FB400B5A3B024AB53F85A
:100A1000042B0193802102A800F0FAFD02A8FFF741
:100A200057FF23B05DF804EB04B0704738B50546B6
:100A3000174C63680133636000F0D4F9206101232F
:100A40002375A9784B1E052B1ED8DFE803F0030A97
:100A50000F1D13180F48FFF73BFF0120FFF7BEFFE4
:100A600038BD291D0C48FFF7CEFFF9E70B48FFF70B
:100A70002FFFF5E7291D0A48FFF7C5FFF0E72979A1
:100A80000848FFF7C0FFEBE70748FFF7BCFFE7E7C1
:100A900018020020A0220008BC220008D42200086E
:100AA000F42200080C2300082C23000810B59AB08B
:100AB0000A23012212A91548FFF7AAFD08B11AB0AE
:100AC00010BD134A1378591CC9B211709DF8482003
:100AD0001048C2546A46FFF723FE041E07DC0C4B85
:100AE0001B78C82BEBD90A4B00221A70E7E768463F
:100AF000FFF79CFF064B1A78121BD2B21A70002A1D
:100B0000DDD00448011900F091FDD8E73002002043
:100B1000140100201801002000B595B01B4B019373
:100B200004230DEB0302012102A8FFF7C7FD0028F3
:100B300026DD642382B202A91548FFF725FD02468F
:100B400090B9144B196801311960134BA3FB0123B1
:100B5000DB0803EB8303B1EB430F14D10F4B1A688F
:100B60000F48FFF750FF0EE00C4B19680131196078
:100B700008488368013383600A48FFF744FF02E0B6
:100B80000948FFF7A5FE15B05DF804FB0102030458
:100B90003002002018020020CDCCCCCC080100206F
:100BA0004C23000874230008A023000800B5A3B05C
:100BB00001463F22684600F053FD00238DF83F3088
:100BC0006846FFF7EDFAC3B26A46022110A8FFF7A4
:100BD00075FD002802DC23B05DF804FBC1B210A84B
:100BE000FFF7E4FEF7E708B500F002F908BD0000E2
:100BF00008B5024B00229A60FFF74EFD002C004022
:100C0000024B4FF480325A61704700BF003C0140F4
:100C100008B50248FFF75CFE00BFFDE7C0230008EF
:100C200010B58AB000F0C4F8FFF7C0FDFFF75EFE14
:100C30003848FFF74DFE3848FFF74AFE3748FFF7C0
:100C400047FE3748FFF744FE3648FFF741FE364877
:100C5000FFF73EFE3548FFF73BFEFFF787FE38B152
:100C60003348FFF735FE4FF4FA70FFF7BCFFFAE7A1
:100C70003048FFF79BFF3048FFF72AFE1DE0FFF7E3
:100C80004BFF2E4B1C602E48016842688368007D34
:100C900028B12C4800902C48FFF7B5FE1CE02B48EB
:100CA000F8E72B4A202102A800F04EFC02A8FFF72B
:100CB0007DFF1DE00A20FFF796FF264A13680133E7
:100CC000136000F08FF80446FFF7F0FE1B4B1B6823
:100CD000E31AB3F5FA6FD2D21E4B1B681E4AA2FB71
:100CE000031252094FF4FA7101FB1232002AD8D0D4
:100CF000134B1B7D002BDDD0114B1B69E41A41F215
:100D000088339C42D6D90E4B00221A751348FFF740
:100D1000DFFDCFE7E0230008E423000808240008F3
:100D20002024000844240008682400088C240008BB
:100D3000B4240008E0240008FC240008100100206E
:100D400018020020D823000820250008DC23000812
:100D5000482500080C010020D34D621054250008DE
:100D60007047000010B504460E4B1A784FF47A73A2
:100D7000B3FBF2F30C4A1068B0FBF3F000F0A2F8FA
:100D800068B90F2C01D901200AE0002221464FF05A
:100D9000FF3000F087F8054B1C60002000E00120C8
:100DA00010BD00BF0400002000000020080000204B
:100DB00008B50B4B1A6842F400721A601A6842F4C4
:100DC00080621A601A6842F480721A60032000F090
:100DD00057F80F20FFF7C6FFFFF7C2FF002008BD3E
:100DE000003C0240014B1868704700BFA002002081
:100DF00038B50446FFF7F6FF0546B4F1FF3F02D0D1
:100E0000044B1B781C44FFF7EDFF401BA042FAD3B4
:100E100038BD00BF04000020002808DB0901C9B26A
:100E200000F1604000F5614080F80013704700F069
:100E30000F000901C9B2014B1954704714ED00E0CD
:100E400000B500F00700C0F1070CBCF1040F28BF8B
:100E50004FF0040C031D062B0FD9C31E4FF0FF3EAD
:100E60000EFA0CF021EA000199400EFA03FE22EA84
:100E70000E0241EA02005DF804FB0023EEE70000E9
:100E8000074AD36823F4E0631B041B0C000200F440
:100E9000E060034343F0BF6343F40033D360704723
:100EA00000ED00E010B50446054BD868C0F3022001
:100EB000FFF7C6FF01462046FFF7AEFF10BD00BF9B
:100EC00000ED00E00138B0F1807F0BD24FF0E0235D
:100ED0005861054AF02182F823100020986107220A
:100EE0001A6170470120704700ED00E000230F2BCE
:100EF00000F2D78070B582B065E085684FEA430E96
:100F0000032404FA0EF425EA0405CC6804FA0EF46E
:100F10002C438460446824EA02044A68C2F3001245
:100F20009A40224342605CE0DC08083450F82420F8
:100F300003F00705AD004FF00F0E0EFA05FE22EA92
:100F40000E0E0A69AA4042EA0E0240F824205CE034
:100F5000042200E0002202FA0EF22A430234514D2C
:100F600045F82420504A94686FEA0C0224EA0C05E4
:100F70004E6816F4801F01D04CEA04054A4CA56067
:100F8000E46802EA04054E6816F4001F01D04CEA3A
:100F90000405454CE560646802EA04054E6816F4F1
:100FA000003F01D04CEA04053F4C656024682240B4
:100FB0004D6815F4803F01D04CEA04023A4C22609F
:100FC00001330F2B6BD801229A400C6804EA020C03
:100FD00032EA0404F4D14C6804F00304013C012C0F
:100FE0008BD94A6802F00302032A09D0C4685D0065
:100FF0000322AA4024EA02048A68AA402243C2606B
:101000004A6802F00302022A8ED004684FEA430EB7
:10101000032202FA0EF224EA02044A6802F00302F2
:1010200002FA0EF2224302604A6812F4403FC7D02F
:10103000002201921D4A546C44F480445464526C62
:1010400002F480420192019A9C08A51C154A52F8AC
:10105000255003F0030E4FEA8E0E0F2202FA0EF215
:1010600025EA0205124A90423FF474AF02F580620D
:1010700090420ED002F5806290420CD002F5806260
:1010800090420AD002F5806290423FF461AF07229D
:1010900061E701225FE702225DE703225BE702B01E
:1010A00070BD704700380140003C014000380240EC
:1010B00000000240026802F10C0353E8003F23F4F1
:1010C00090730C3242E800310029F3D1026802F13A
:1010D000140353E8003F23F00103143242E80031C7
:1010E0000029F3D1036B012B05D0202380F8423077
:1010F000002303637047026802F10C0353E8003FCA
:1011000023F010030C3242E800310029F3D1ECE760
:1011100010B504460268136923F44053C1680B43B9
:101120001361836802691A4343691A43C3691A4306
:101130000168CB6823F4164323F00C031343CB6000
:101140000268536923F4407381690B435361036858
:10115000314A934206D002F58062934202D000F0F9
:10116000A9F901E000F0B6F9E369B3F5004F29D021
:101170000021031849411B1841F10001C90041EA4F
:101180005371DB00181863684FEA83024FEA9373C8
:1011900041F10001FFF75CF8204AA2FB0031490948
:1011A000642303FB11031B013233A2FB03235B09FE
:1011B00003F0F00202EB011203F00F032168134465
:1011C0008B6010BD0023021843EB0301121841F19C
:1011D0000001C90041EA5271D200101841F100012A
:1011E000626892185B41FFF733F80C4AA2FB0031AA
:1011F0004909642303FB1103DB003233A2FB032301
:101200005B095A0002F4F87202EB011203F00703C3
:10121000216813448B60D4E7001001401F85EB5117
:101220002DE9F04383B005460E4617469946DDF892
:1012300028802B681C6836EA04040CBF01240024B3
:10124000BC4228D1B8F1FF3FF3D0FFF7CBFDA0EBB4
:101250000900404523D8B8F1000F22D02B68DA6886
:1012600012F0040FE5D0802EE3D0402EE1D01A68B2
:1012700012F0080FDDD0002401941A6801925B6817
:101280000193019B2846FFF715FF08236B6485F83F
:101290004040012000E0002003B0BDE8F0830320BF
:1012A000FAE70320F8E7704760B310B5044690F8FA
:1012B000413013B3242384F841302268D36823F4E7
:1012C0000053D3602046FFF723FF2268136923F4FD
:1012D000904313612268536923F02A035361226803
:1012E000D36843F40053D36000206064202384F863
:1012F000413084F84230606310BD80F84030FFF721
:10130000D2FFD7E7012070472DE9F04182B01E4699
:1013100090F84130DBB2202B56D104460D46904662
:10132000002955D00AB901204FE00023436421234E
:1013300080F84130FFF756FD0746A4F82480A4F852
:101340002680A368B3F5805F02D04FF0000814E058
:1013500023692BB34FF000080FE0202384F84130BD
:10136000032032E038F8023B2268C3F308035360DD
:10137000E28C92B2013A92B2E284E38C9BB293B1D6
:1013800000963B46002280212046FFF749FF0028B7
:10139000E3D1002DE6D015F8012B23685A60E7E76A
:1013A000A8460025E9E700963B460022402120465A
:1013B000FFF736FF18B9202384F8413005E02023D9
:1013C00084F84130032000E0022002B0BDE8F08143
:1013D0000120FAE72DE9F04182B01E4690F8423034
:1013E000DBB2202B59D104460D469046002958D037
:1013F0000AB9012052E000234364222280F84220EF
:101400000363FFF7EFFC0746A4F82C80A4F82E80B6
:10141000A368B3F5805F02D04FF000081CE0236999
:1014200013B14FF0000817E0A846002514E0202370
:1014300084F84230032031E023685B68C3F308037B
:1014400028F8023B03E023685B682B700135E28DCE
:1014500092B2013A92B2E285E38D9BB2C3B100969B
:101460003B46002220212046FFF7DAFE0028DED18D
:10147000002DE1D0A368B3F5805FE4D013B92369F0
:10148000002BE0D023685B6803F07F032B70DDE75F
:10149000202384F84230002000E0022002B0BDE8A2
:1014A000F0810120FAE70000014B1868704700BF87
:1014B0000000002008B5FFF7F7FF044B9B68C3F35B
:1014C0008223034AD35CD84008BD00BF00380240E5
:1014D0004422000808B5FFF7E7FF044B9B68C3F3FD
:1014E0004233034AD35CD84008BD00BF00380240F5
:1014F00044220008DFF834D0FEF70AFF0C480D49FB
:101500000D4A002302E0D458C4500433C4188C425E
:10151000F9D30A4A0A4C002301E013600432A242C4
:10152000FBD300F0B1F8FFF77BFB7047000002200F
:10153000000000205C000020B42500085C000020B2
:10154000F0030020FEE700000CB430B5184B0C1E71
:101550001D689DB008DA8B232B604FF0FF301DB063
:10156000BDE8304002B070474FF40273ADF814305C
:101570004FF000031B9314BF04F1FF332346049381
:1015800007934FF6FF7302900690ADF81630209A3D
:1015900021AB02A92846019300F0F8F8431CBCBF18
:1015A0008B232B60002CDAD0029B00221A70D6E726
:1015B0000C00002030B51446002C9BB005461A469E
:1015C00005DA8B2303604FF0FF301BB030BD4FF4C2
:1015D0000273ADF80C304FF00003199314BF04F1FF
:1015E000FF332346029305934FF6FF730091049156
:1015F000ADF80E3069461E9B00F0C8F8431CBCBF16
:101600008B232B60002CE0D0009B00221A70DCE7BB
:1016100007B5009313460A46014603480068FFF7E2
:10162000C9FF03B05DF804FB0C000020884210B530
:1016300001EB020402D98442234607D8431EA1428B
:1016400008D011F8012B03F8012FF8E702440146F6
:101650008A4200D110BD13F8014D02F8014DF7E7A1
:1016600010B50139034632B111F8014F03F8014BAF
:10167000013A002CF7D11A440021934200D110BD49
:1016800003F8011BF9E7000070B50D4D0D4C641B0C
:10169000A4100026A64209D10B4D0C4C00F0B6FD5B
:1016A000641BA4100026A64205D170BD55F8043B6A
:1016B00098470136EEE755F8043B98470136F2E7C4
:1016C000AC250008AC250008AC250008B0250008B2
:1016D000704770472DE9F0478E681F46BE420B6881
:1016E00082460C4690462DD8B1F90C2012F4906F2A
:1016F00026D06569096905EB4505A3EB010905EBF2
:10170000D5757B1C4B446D109D4238BF1D4653055B
:1017100027D5294600F058F9064660B321694A46A4
:1017200000F0A8FBA38923F4906343F08003A38116
:10173000266165614E44A5EB09052660A5603E461D
:10174000BE4200D93E46206832464146FFF76EFF52
:10175000A3689B1BA3602368334423600020BDE87B
:10176000F0872A4600F048FB06460028E0D12169B0
:10177000504600F08DFB0C23CAF80030A38943F0DB
:101780004003A3814FF0FF30E9E700002DE9F04F5F
:1017900098468B891B069DB007460D46144610D50A
:1017A0000B6973B9402100F00FF92860286130B946
:1017B0000C233B604FF0FF301DB0BDE8F08F40239D
:1017C0006B610023099320238DF82930CDF80C801C
:1017D0003023DFF89C818DF82A304FF00109234631
:1017E0009A4613F8012B0AB1252AF9D1BAEB040B5A
:1017F0000BD05B46224629463846FFF76BFF013087
:1018000000F0A780099A5A4409929AF80030002BF8
:1018100000F09F8000234FF0FF32CDE905230AF14D
:10182000010A049307938DF853301A935446052206
:1018300014F8011B4E48FEF7BBFC049AD8B9D00639
:1018400044BF20238DF85330110744BF2B238DF85C
:1018500053309AF800302A2B15D0079A54460020AE
:101860004FF00A0C214611F8013B303B092B4BD9B4
:10187000B0B1079214E0A0EB080309FA03F3134395
:101880000493A246D2E7039B191D1B680391002B0A
:10189000BBBF5B4242F0020207930793B8BF0492BA
:1018A00023782E2B0AD163782A2B32D1039B1A1D61
:1018B0001B68039243EAE37302340593DFF8C0A088
:1018C000217803225046FEF773FC38B1049BA0EB4D
:1018D0000A004022824013430134049314F8011B90
:1018E00024488DF828100622FEF762FC002836D026
:1018F000214B1BBB039B073323F0070308330393E0
:10190000099B334409936AE70CFB02320C46012021
:10191000A8E700230134059319464FF00A0C20462E
:1019200010F8012B303A092A03D9002BC6D00591B3
:10193000C4E70CFB012104460123F0E703AB00934D
:101940002A460E4B04A93846AFF30080421C0646D7
:10195000D6D1AB895B063FF52DAF09982CE703ABD9
:1019600000932A46054B04A9384600F01BF9EDE721
:101970006E2500087825000800000000D516000834
:101980007425000870B50F4E0C463168054611B934
:1019900000F060FA30602146284600F05BFA431CF4
:1019A00003D14FF0FF34204670BDC41C24F0030463
:1019B000A042F8D0211A284600F04CFA0130F2D1AA
:1019C000EFE700BFE00300202DE9F843CD1C25F030
:1019D000030508350C2D38BF0C25002D064601DB0C
:1019E000A94204D90C2333600020BDE8F883DFF856
:1019F000D48000F0F5F9D8F800301C4644BB2946E5
:101A00003046FFF7BFFF431C044658D1D8F80040CA
:101A10002746002F43D1002C4BD02368394630464F
:101A200004EB030900F016FA814542D121686D1AD2
:101A300029463046FFF7A6FF01303AD023682B44F1
:101A40002360D8F800305A6862BBC8F800700FE015
:101A50002268521B20D40B2A17D96119A342256092
:101A600018BF5960636808BFC8F8001062514B6026
:101A7000304600F0BBF904F10B00231D20F00700F5
:101A8000C21A1CBF1B1AA350AFE76268A3420CBF67
:101A9000C8F800205A60EBE723466468AEE73C468E
:101AA0007F68B6E71A465B68A342FBD10023536008
:101AB000DEE70C233360304600F098F994E70560C8
:101AC000D6E700BFE40300202DE9F047164698460C
:101AD0008A680B69DDF820909342B8BF13463360E3
:101AE00091F8432007460C460AB10133336023685E
:101AF000990642BF336802333360256815F0060546
:101B000006D104F1190AE36832689B1AAB4226DC5D
:101B100094F843302268003B18BF012392062BD46F
:101B200004F1430241463846C84701301ED02368BD
:101B3000226903F00603042B02BFE5683368ED1A3F
:101B4000A3680CBF25EAE57500259342C4BF9B1A24
:101B5000ED1800261A34B5421AD1002008E00123FE
:101B6000524641463846C847013003D14FF0FF3056
:101B7000BDE8F0870135C6E7E1185A1C302081F82E
:101B80004300224494F8451082F843100233C7E71B
:101B90000123224641463846C8470130E6D0013687
:101BA000D9E700002DE9FF470F7E0C9E782F914664
:101BB00080460C469A4601F1430207D8622F0AD8A4
:101BC000002F00F0D180582F00F0B88004F14206B9
:101BD00084F842703AE0A7F16303152BF6D801A10F
:101BE00051F823F03D1C0008511C0008CD1B0008D3
:101BF000CD1B0008CD1B0008CD1B0008511C0008A0
:101C0000CD1B0008CD1B0008CD1B0008CD1B000814
:101C10004F1D00087B1C0008091D0008CD1B000893
:101C2000CD1B0008711D0008CD1B00087B1C00089F
:101C3000CD1B0008CD1B0008111D000833681A1DBC
:101C40001B68326004F1420684F8423001239CE0B4
:101C500033682068191D3160060601D51D6803E050
:101C60004506FBD5B3F90050002D03DA2D236D4254
:101C700084F8433058480A2311E021683368080685
:101C800053F8045B02D4490648BFADB26F2F5248E7
:101C9000336014BF0A230823002184F843106668C8
:101CA000A660002E05DB21682E4321F0040121608F
:101CB0004BD01646B5FBF3F103FB1157C75D06F891
:101CC000017D2F46BB420D46F4D9082B0BD123686A
:101CD000DF0708D5236961689942DEBF302306F823
:101CE000013C06F1FF36921B2261CDF800A04B4665
:101CF00003AA21464046FFF7E7FE01304AD14FF0E4
:101D0000FF3004B0BDE8F087236843F02003236070
:101D10003248782784F84570236831681F0651F8E7
:101D2000045B02D45F0648BFADB23160D90744BF3F
:101D300043F0200323601DB11023ADE72648E9E7F7
:101D4000236823F020032360F6E71646BDE73368D7
:101D500025686169181D30602E061B6801D5196061
:101D600002E06806FBD51980002323611646BCE714
:101D700033681A1D32601E68626800213046FEF723
:101D800017FA08B1801B606063682361002384F840
:101D90004330AAE72369324649464046D0470130DE
:101DA000ADD023689B0713D4E068039B9842B8BF6B
:101DB0001846A6E70123324649464046D04701303F
:101DC0009DD00135E36803995B1AAB42F2DCEBE787
:101DD000002504F11906F5E77F2500089025000885
:101DE0000148FFF775BC00BFDC0300200148FFF786
:101DF00070BC00BFDC0300202DE9F041074614460B
:101E00000D4621B9BDE8F0411146FFF7DDBD2AB905
:101E100000F03EF825462846BDE8F08100F082F843
:101E20008442064602D8B4EB500FF4D82146384617
:101E3000FFF7CAFD804608B94546ECE7B4422246A2
:101E4000294628BF324600F015F82946384600F0EA
:101E50001FF8F1E738B5064D0023044608462B600D
:101E600000F068F8431C02D12B6803B1236038BD31
:101E7000E80300200A44914200F1FF3300D170478B
:101E800010B511F8014B03F8014F9142F9D110BD83
:101E900038B50546002941D051F8043C0C1F002BF1
:101EA000B8BFE418FFF79CFF1D4A136833B963609D
:101EB00014602846BDE83840FFF798BFA34208D910
:101EC000206821188B4201BF19685B6809182160DE
:101ED000EDE71A465B680BB1A342FAD911685018B6
:101EE000A0420BD120680144501883421160E0D118
:101EF00018685B68536008441060DAE702D90C2365
:101F00002B60D6E7206821188B4204BF19685B68F4
:101F1000636004BF091821605460CAE738BD00BF80
:101F2000E403002051F8043C181F002BBCBF0B58E1
:101F3000C0187047044A05491368002B08BF0B46B8
:101F40001844106018467047EC030020F00300208E
:101F50002DE9F047089D0E4604460F46002B4AD156
:101F600094468C45B2FA82F260D942B1C2F12003A4
:101F7000974020FA03F30CFA02FC1F4394404FEA07
:101F80001C4E1FFA8CF6B7FBFEF1230C0EFB1177EB
:101F900043EA074301FB06F098420AD91CEB03030E
:101FA00001F1FF3780F01581984240F21281023929
:101FB00063441B1AA4B2B3FBFEF00EFB103344EAD9
:101FC000034400FB06F6A6420AD91CEB040400F108
:101FD000FF3380F00081A64240F2FD806444023865
:101FE00040EA0140A41B00211DB1D4400023C5E9F3
:101FF0000043BDE8F0878B4205D90DB1C5E900016A
:1020000000210846F5E7B3FA83F1002946D1B3422F
:1020100002D3824200F2F580841A66EB03020120AB
:102020001746002DE5D0C5E90047E2E7002A40F059
:102030009380A1EB0C034FEA1C471FFA8CFE012191
:10204000B3FBF7F607FB1630230C43EA00430EFB05
:1020500006F0984208D91CEB030306F1FF3802D2C0
:10206000984200F2D08046461B1AA4B2B3FBF7F0A8
:1020700007FB103344EA03440EFB00FEA64508D9D3
:102080001CEB040400F1FF3302D2A64500F2B68037
:102090001846A4EB0E0440EA0640A5E7C1F120076C
:1020A0008B4022FA07FC4CEA030C06FA01FE20FAE8
:1020B00007F426FA07F344EA0E0400FA01F84FEA9F
:1020C0001C404FEA1449B3FBF0FE1FFA8CF600FBEC
:1020D0001E3349EA03430EFB06F9994502FA01F261
:1020E0000BD91CEB03030EF1FF3A80F08580994574
:1020F00040F28280AEF1020E6344A3EB0909A4B260
:10210000B9FBF0F300FB139944EA094403FB06F61C
:10211000A64208D91CEB040403F1FF3068D2A642A2
:1021200066D9023B644443EA0E40A41BA0FB02E6CE
:10213000B4427346B14652D34FD05DB1B8EB0302FF
:1021400064EB090404FA07F722FA01F31F43CC40B9
:10215000C5E9007400214CE7C2F1200120FA01F327
:102160000CFA02FC26FA01F1964033434FEA1C4771
:102170001FFA8CFEB1FBF7F007FB1016190C41EAB1
:10218000064100FB0EF68E4204FA02F408D91CEB5D
:10219000010100F1FF382DD28E422BD90238614463
:1021A000891B9BB2B1FBF7F607FB161143EA01430B
:1021B00006FB0EF1994208D91CEB030306F1FF3828
:1021C00014D2994212D9023E63445B1A46EA004196
:1021D00036E73946EDE6184602E7F045ADD2BEEBEC
:1021E000020366EB0C060138B146A6E74646ECE76B
:1021F000034698E74046D3E7D6467EE76444023874
:1022000047E708460DE7023E63442DE7F8B500BFF7
:10221000F8BC08BC9E467047F8B500BFF8BC08BCC7
:042220009E4670471F
:10222400000600000200000001000000020000009F
:102234000700000000C201000000000003000000CD
:1022440000000000010203045B554152545D205715
:10225400694669205541525420696E697469616CFC
:10226400697A656420285553415254322C20313107
:1022740035323030290D0A005B4552524F525D20F1
:1022840057694669205541525420696E6974206625
:1022940061696C6564210D0A000000005B52585DA1
:1022A400204865617274626561742066726F6D2086
:1022B40045535033320D0A005B52585D204553504C
:1022C4003332205374617475733A2025730D0A00F8
:1022D4005B52585D20436F6E74726F6C20636F6D38
:1022E4006D616E642072656365697665640D0A00CC
:1022F4005B52585D20455350333220446562756704
:102304003A2025730D0A00005B52585D2041434B6F
:1023140020666F72206D7367207479706520307841
:10232400253032580D0A00005B52585D20556E6B03
:102334006E6F776E206D736720747970653A203004
:1023440078253032580D0A005B54585D2048656189
:10235400727462656174204F4B2028746F74616CD1
:102364003A256C75206572723A256C75290D0A0040
:102374005B54585D204865617274626561742046DF
:1023840041494C454420286572723A256C75206396
:102394006F64653A2564290D0A0000005B54585D9A
:1023A400204D657373616765206275696C6420668E
:1023B40061696C6564210D0A000000005B464154AC
:1023C400414C5D20486172644661756C74210D0A4C
:1023D40000000000594553004E4F00000D0A000054
:1023E4003D3D3D3D3D3D3D3D3D3D3D3D3D3D3D3D19
:1023F4003D3D3D3D3D3D3D3D3D3D3D3D3D3D3D3D09
:102404000D0A000053544D333246343131205541C6
:10241400525420546573740D0A00000054617267AD
:1024240065743A2045535033322D433320436F6D46
:102434006D756E69636174696F6E0D0A000000004A
:10244400554152543A205553415254322028504158
:10245400322F504133292040203131353230300D74
:102464000A00000044656275673A2055534152548E
:102474003120285041392F50413130292040203912
:1024840032313630300D0A003D3D3D3D3D3D3D3D50
:102494003D3D3D3D3D3D3D3D3D3D3D3D3D3D3D3D68
:1024A4003D3D3D3D3D3D3D3D0D0A0D0A0000000012
:1024B4005B464154414C5D204661696C65642074FF
:1024C4006F20696E697469616C697A652057694621
:1024D400692055415254210D0A00000053544D33D4
:1024E4003220696E697469616C697A656420616E11
:1024F40064207265616479005B494E49545D2052E1
:102504006561647920666F7220636F6D6D756E69A5
:10251400636174696F6E0D0A0D0A00005B535441C8
:10252400545D2054583A256C752052583A256C75E0
:10253400204552523A256C7520434F4E4E3A25732E
:102544000D0A00004C6F6F703A256C750000000096
:102554005B5741524E5D20436F6E6E656374696FC5
:102564006E206C6F7374210D0A00232D302B200014
:10257400686C4C0065666745464700303132333439
:1025840035363738394142434445460030313233D9
:10259400343536373839616263646566000000009B
:0825A400FCDBFF7F01000000D9
:0425AC00ED02000834
:0425B000C502000858
:1025B4000024F400010000001000000010000020BE
:1025C40000000000A40200200C030020740300207B
:1025D40000000000000000000000000000000000F7
:1025E40000000000000000000000000000000000E7
:1025F40000000000000000000000000000000000D7
:0C260400000000000000000000000000CA
:04000005080014F5E6
:00000001FF
